:020000040000FA
:060000000A128A110C280F
:10000800FE00030EFA000A08FB000A128A11822871
:100018000A128A110F2883134030FD000030FE00B9
:10002800AC30FF00203084000A128A11D0200A1256
:100038008A11F001F101F201F301F401F501F60171
:10004800F701F801F90183010A128A112B280A1213
:100058008A11DF200A128A11F601F701F401F5016D
:10006800F201F301F601F7018312031306183D2884
:100078003E284C2874037504031D432844284C2843
:100088000130F6070318F70A0030F707F401F50105
:1000980086184F2850285E2872037304031D5528BC
:1000A80056285E28FF30F6070318F70AFF30F707CF
:1000B800F201F3017708803AFC0080307C02031DCE
:1000C80067281E087602031C6A286B286E2883128C
:1000D800031305147708803A803C031D77287608B7
:1000E800831203131E02031C7A287B2838288312E4
:1000F8000313051038280A128A110C2883120313D7
:100108000C1F872888288B28760888000C130B1C5E
:100118008E288F289828061C922893289828013022
:10012800F4000030F5000B100B1C9B289C28A52818
:10013800861C9F28A028A5280130F2000030F30073
:100148000B107B088A007A0E8300FE0E7E0E0900D3
:100158003F340034063400345B3400344F34003408
:10016800663400346D3400347D3400340734003490
:100178007F3400346F340034773400347C340034F6
:10018800393400345E340034793400347134003446
:100198007E088A007F0882000A128A11CC200A127F
:1001A8008A118000840A04087D0603190034FF0AB6
:1001B8000319FE0AD02883120313850186018701DB
:1001C80088018316031788018901013083160313F8
:0C01D800850003308600870188010800C4
:00000001FF
