:020000040000FA
:060000000A128A110C280F
:10000800FE00030EF6000A08F7000A128A11EB2810
:100018000A128A110F2883134030FD000130FE00B8
:100028002730FF00203084000A128A115F210A124B
:100038008A11C001C101C201C301C401C501C601C1
:10004800C701C801C901F001F101F201F301F4018E
:10005800F50183010A128A1131280A128A116E21C8
:100068000A128A110A128A1147210A128A11F40106
:10007800F501F201F301F001F101F401F501831238
:100088000313061848284928572872037304031DC8
:100098004E284F2857280130F4070318F50A003076
:1000A800F507F201F30186185A285B2869287003BE
:1000B8007104031D602861286928FF30F4070318BC
:1000C800F50AFF30F507F001F1017508803AFA00EA
:1000D80080307A02031D72281E087402031C7528DA
:1000E800762879288312031305147508803A803C12
:1000F800031D82287408831203131E02031C85281B
:1001080086288928831203130510831203139F1C62
:100118008E288F28AD28CA011E080319942895280F
:100128009728CA01CA0A4A08FA00FB017A08C200DD
:100138007B08C300CB011E080319A328A428A628FE
:10014800CB01CB0A4B08FA00FB017A08C0007B08F8
:10015800C1004708803AFF0080307F02031DB6289F
:1001680001304602031CB928BA28C9288312031390
:10017800061586114208FA007A07203E8400831388
:10018800000887008701C601C701831203134508C9
:10019800803AFF0080307F02031DD42801304402DA
:1001A800031CD728D8284328831203130611861561
:1001B8004008FA007A07203E84008313000887006D
:1001C8008701C401C50143280A128A110C28831229
:1001D80003130C1FF028F128F428740888000C1366
:1001E8000B1CF728F8280129061CFB28FC280129E4
:1001F8000130F2000030F3000B100B1C0429052914
:100208000E29861C082909290E290130F000003022
:10021800F1000B100B1D112912292029FF30810034
:100228000130C6070318C70A0030C7070130C407E2
:100238000318C50A0030C50777088A00760E8300C0
:10024800FE0E7E0E09003F340034063400345B3461
:1002580000344F340034663400346D3400347D3457
:100268000034073400347F3400346F34003477347A
:1002780000347C340034393400345E34003479344A
:100288000034713400345029831203131F179F134D
:10029800C3309F051F145A297908003A03195529B4
:1002A8005A297808003A031948295A2908007E086B
:1002B8008A007F0882000A128A115B210A128A11B9
:1002C8008000840A04087D0603190034FF0A031914
:1002D800FE0A5F29831203138501860187018801BD
:1002E80083160317880189010130831603138500DB
:0A02F800033086008701880108002A
:00000001FF
